:100000000C9434000C943E000C943E000C94400080
:100010000C943E000C943E000C943E000C943E0068
:100020000C943E000C943E000C943E000C943E0058
:100030000C943E000C943E000C943E000C943E0048
:100040000C943E000C943E000C943E000C943E0038
:100050000C943E000C943E000C943E000C943E0028
:100060000C943E000C943E0011241FBECFEFD8E04C
:10007000DEBFCDBF0E9456000C9465000C940000BA
:100080001F920F920FB60F921124189B02C02A9A4A
:1000900002C0189B2A98199B02C02D9A02C0199B76
:1000A0002D980F900FBE0F901F90189580916800AB
:1000B00081608093680080916B00836080936B0007
:0E00C00084B1846284B97894FFCFF894FFCFA6
:00000001FF
